{
  "_format": "hh-sol-artifact-1",
  "contractName": "MarketFactoryV3",
  "sourceName": "contracts/MarketFactoryV3.sol",
  "abi": [
    {
      "inputs": [
        {
          "internalType": "address",
          "name": "_collateralToken",
          "type": "address"
        }
      ],
      "stateMutability": "nonpayable",
      "type": "constructor"
    },
    {
      "anonymous": false,
      "inputs": [
        {
          "indexed": true,
          "internalType": "address",
          "name": "marketAddress",
          "type": "address"
        },
        {
          "indexed": false,
          "internalType": "string",
          "name": "question",
          "type": "string"
        },
        {
          "indexed": false,
          "internalType": "string",
          "name": "metadataURI",
          "type": "string"
        },
        {
          "indexed": true,
          "internalType": "address",
          "name": "creator",
          "type": "address"
        }
      ],
      "name": "MarketCreated",
      "type": "event"
    },
    {
      "inputs": [
        {
          "internalType": "uint256",
          "name": "",
          "type": "uint256"
        }
      ],
      "name": "allMarkets",
      "outputs": [
        {
          "internalType": "address",
          "name": "",
          "type": "address"
        }
      ],
      "stateMutability": "view",
      "type": "function"
    },
    {
      "inputs": [],
      "name": "collateralToken",
      "outputs": [
        {
          "internalType": "address",
          "name": "",
          "type": "address"
        }
      ],
      "stateMutability": "view",
      "type": "function"
    },
    {
      "inputs": [
        {
          "internalType": "string",
          "name": "_question",
          "type": "string"
        },
        {
          "internalType": "string",
          "name": "_metadataURI",
          "type": "string"
        }
      ],
      "name": "createMarket",
      "outputs": [
        {
          "internalType": "address",
          "name": "",
          "type": "address"
        }
      ],
      "stateMutability": "nonpayable",
      "type": "function"
    },
    {
      "inputs": [],
      "name": "getAllMarkets",
      "outputs": [
        {
          "internalType": "address[]",
          "name": "",
          "type": "address[]"
        }
      ],
      "stateMutability": "view",
      "type": "function"
    },
    {
      "inputs": [
        {
          "internalType": "address",
          "name": "creator",
          "type": "address"
        }
      ],
      "name": "getMarketsByCreator",
      "outputs": [
        {
          "internalType": "address[]",
          "name": "",
          "type": "address[]"
        }
      ],
      "stateMutability": "view",
      "type": "function"
    },
    {
      "inputs": [
        {
          "internalType": "address",
          "name": "",
          "type": "address"
        },
        {
          "internalType": "uint256",
          "name": "",
          "type": "uint256"
        }
      ],
      "name": "marketsByCreator",
      "outputs": [
        {
          "internalType": "address",
          "name": "",
          "type": "address"
        }
      ],
      "stateMutability": "view",
      "type": "function"
    }
  ],
  "bytecode": "0x60a060405234801561001057600080fd5b5060405162005d5838038062005d58833981810160405281019061003491906100d1565b8073ffffffffffffffffffffffffffffffffffffffff1660808173ffffffffffffffffffffffffffffffffffffffff1681525050506100fe565b600080fd5b600073ffffffffffffffffffffffffffffffffffffffff82169050919050565b600061009e82610073565b9050919050565b6100ae81610093565b81146100b957600080fd5b50565b6000815190506100cb816100a5565b92915050565b6000602082840312156100e7576100e661006e565b5b60006100f5848285016100bc565b91505092915050565b608051615c3762000121600039600081816102ac01526103a50152615c376000f3fe60806040523480156200001157600080fd5b50600436106200006a5760003560e01c806313ba3d14146200006f57806352d84d1e14620000a5578063b0772d0b14620000db578063b2016bd414620000fd578063e99c80bd146200011f578063f39122a11462000155575b600080fd5b6200008d60048036038101906200008791906200063f565b6200018b565b6040516200009c919062000697565b60405180910390f35b620000c36004803603810190620000bd9190620006b4565b620001da565b604051620000d2919062000697565b60405180910390f35b620000e56200021a565b604051620000f49190620007b4565b60405180910390f35b62000107620002aa565b60405162000116919062000697565b60405180910390f35b6200013d6004803603810190620001379190620007d8565b620002ce565b6040516200014c9190620007b4565b60405180910390f35b6200017360048036038101906200016d91906200096c565b6200039d565b60405162000182919062000697565b60405180910390f35b60016020528160005260406000208181548110620001a857600080fd5b906000526020600020016000915091509054906101000a900473ffffffffffffffffffffffffffffffffffffffff1681565b60008181548110620001eb57600080fd5b906000526020600020016000915054906101000a900473ffffffffffffffffffffffffffffffffffffffff1681565b60606000805480602002602001604051908101604052809291908181526020018280548015620002a057602002820191906000526020600020905b8160009054906101000a900473ffffffffffffffffffffffffffffffffffffffff1673ffffffffffffffffffffffffffffffffffffffff168152602001906001019080831162000255575b5050505050905090565b7f000000000000000000000000000000000000000000000000000000000000000081565b6060600160008373ffffffffffffffffffffffffffffffffffffffff1673ffffffffffffffffffffffffffffffffffffffff1681526020019081526020016000208054806020026020016040519081016040528092919081815260200182805480156200039157602002820191906000526020600020905b8160009054906101000a900473ffffffffffffffffffffffffffffffffffffffff1673ffffffffffffffffffffffffffffffffffffffff168152602001906001019080831162000346575b50505050509050919050565b6000808383337f0000000000000000000000000000000000000000000000000000000000000000604051620003d2906200057d565b620003e1949392919062000a7a565b604051809103906000f080158015620003fe573d6000803e3d6000fd5b50905060008190506000819080600181540180825580915050600190039060005260206000200160009091909190916101000a81548173ffffffffffffffffffffffffffffffffffffffff021916908373ffffffffffffffffffffffffffffffffffffffff160217905550600160003373ffffffffffffffffffffffffffffffffffffffff1673ffffffffffffffffffffffffffffffffffffffff168152602001908152602001600020819080600181540180825580915050600190039060005260206000200160009091909190916101000a81548173ffffffffffffffffffffffffffffffffffffffff021916908373ffffffffffffffffffffffffffffffffffffffff1602179055503373ffffffffffffffffffffffffffffffffffffffff168173ffffffffffffffffffffffffffffffffffffffff167fbd5632a07ca3860fbaa43269115ff2546616665e672a1e797bd5e70f1701294287876040516200056a92919062000ad5565b60405180910390a3809250505092915050565b6150f18062000b1183390190565b6000604051905090565b600080fd5b600080fd5b600073ffffffffffffffffffffffffffffffffffffffff82169050919050565b6000620005cc826200059f565b9050919050565b620005de81620005bf565b8114620005ea57600080fd5b50565b600081359050620005fe81620005d3565b92915050565b6000819050919050565b620006198162000604565b81146200062557600080fd5b50565b60008135905062000639816200060e565b92915050565b6000806040838503121562000659576200065862000595565b5b60006200066985828601620005ed565b92505060206200067c8582860162000628565b9150509250929050565b6200069181620005bf565b82525050565b6000602082019050620006ae600083018462000686565b92915050565b600060208284031215620006cd57620006cc62000595565b5b6000620006dd8482850162000628565b91505092915050565b600081519050919050565b600082825260208201905092915050565b6000819050602082019050919050565b6200071d81620005bf565b82525050565b600062000731838362000712565b60208301905092915050565b6000602082019050919050565b60006200075782620006e6565b620007638185620006f1565b9350620007708362000702565b8060005b83811015620007a75781516200078b888262000723565b975062000798836200073d565b92505060018101905062000774565b5085935050505092915050565b60006020820190508181036000830152620007d081846200074a565b905092915050565b600060208284031215620007f157620007f062000595565b5b60006200080184828501620005ed565b91505092915050565b600080fd5b600080fd5b6000601f19601f8301169050919050565b7f4e487b7100000000000000000000000000000000000000000000000000000000600052604160045260246000fd5b6200085f8262000814565b810181811067ffffffffffffffff8211171562000881576200088062000825565b5b80604052505050565b6000620008966200058b565b9050620008a4828262000854565b919050565b600067ffffffffffffffff821115620008c757620008c662000825565b5b620008d28262000814565b9050602081019050919050565b82818337600083830152505050565b600062000905620008ff84620008a9565b6200088a565b9050828152602081018484840111156200092457620009236200080f565b5b62000931848285620008df565b509392505050565b600082601f8301126200095157620009506200080a565b5b813562000963848260208601620008ee565b91505092915050565b6000806040838503121562000986576200098562000595565b5b600083013567ffffffffffffffff811115620009a757620009a66200059a565b5b620009b58582860162000939565b925050602083013567ffffffffffffffff811115620009d957620009d86200059a565b5b620009e78582860162000939565b9150509250929050565b600081519050919050565b600082825260208201905092915050565b60005b8381101562000a2d57808201518184015260208101905062000a10565b60008484015250505050565b600062000a4682620009f1565b62000a528185620009fc565b935062000a6481856020860162000a0d565b62000a6f8162000814565b840191505092915050565b6000608082019050818103600083015262000a96818762000a39565b9050818103602083015262000aac818662000a39565b905062000abd604083018562000686565b62000acc606083018462000686565b95945050505050565b6000604082019050818103600083015262000af1818562000a39565b9050818103602083015262000b07818462000a39565b9050939250505056fe60806040523480156200001157600080fd5b50604051620050f1380380620050f1833981810160405281019062000037919062000696565b33600073ffffffffffffffffffffffffffffffffffffffff168173ffffffffffffffffffffffffffffffffffffffff1603620000ad5760006040517f1e4fbdf7000000000000000000000000000000000000000000000000000000008152600401620000a4919062000757565b60405180910390fd5b620000be81620003cc60201b60201c565b50600180819055508360029081620000d79190620009bf565b508260039081620000e99190620009bf565b5081600460006101000a81548173ffffffffffffffffffffffffffffffffffffffff021916908373ffffffffffffffffffffffffffffffffffffffff16021790555080600560006101000a81548173ffffffffffffffffffffffffffffffffffffffff021916908373ffffffffffffffffffffffffffffffffffffffff160217905550836040516020016200017f919062000b0e565b6040516020818303038152906040526040516200019c9062000490565b620001a8919062000bda565b604051809103906000f080158015620001c5573d6000803e3d6000fd5b50600660006101000a81548173ffffffffffffffffffffffffffffffffffffffff021916908373ffffffffffffffffffffffffffffffffffffffff1602179055508360405160200162000219919062000c39565b604051602081830303815290604052604051620002369062000490565b62000242919062000cb3565b604051809103906000f0801580156200025f573d6000803e3d6000fd5b50600760006101000a81548173ffffffffffffffffffffffffffffffffffffffff021916908373ffffffffffffffffffffffffffffffffffffffff160217905550600660009054906101000a900473ffffffffffffffffffffffffffffffffffffffff1673ffffffffffffffffffffffffffffffffffffffff1663f2fde38b306040518263ffffffff1660e01b8152600401620002fd919062000757565b600060405180830381600087803b1580156200031857600080fd5b505af11580156200032d573d6000803e3d6000fd5b50505050600760009054906101000a900473ffffffffffffffffffffffffffffffffffffffff1673ffffffffffffffffffffffffffffffffffffffff1663f2fde38b306040518263ffffffff1660e01b81526004016200038e919062000757565b600060405180830381600087803b158015620003a957600080fd5b505af1158015620003be573d6000803e3d6000fd5b505050505050505062000cec565b60008060009054906101000a900473ffffffffffffffffffffffffffffffffffffffff169050816000806101000a81548173ffffffffffffffffffffffffffffffffffffffff021916908373ffffffffffffffffffffffffffffffffffffffff1602179055508173ffffffffffffffffffffffffffffffffffffffff168173ffffffffffffffffffffffffffffffffffffffff167f8be0079c531659141344cd1fd0a4f28419497f9722a3daafe3b4186f6b6457e060405160405180910390a35050565b6119db806200371683390190565b6000604051905090565b600080fd5b600080fd5b600080fd5b600080fd5b6000601f19601f8301169050919050565b7f4e487b7100000000000000000000000000000000000000000000000000000000600052604160045260246000fd5b6200050782620004bc565b810181811067ffffffffffffffff82111715620005295762000528620004cd565b5b80604052505050565b60006200053e6200049e565b90506200054c8282620004fc565b919050565b600067ffffffffffffffff8211156200056f576200056e620004cd565b5b6200057a82620004bc565b9050602081019050919050565b60005b83811015620005a75780820151818401526020810190506200058a565b60008484015250505050565b6000620005ca620005c48462000551565b62000532565b905082815260208101848484011115620005e957620005e8620004b7565b5b620005f684828562000587565b509392505050565b600082601f830112620006165762000615620004b2565b5b815162000628848260208601620005b3565b91505092915050565b600073ffffffffffffffffffffffffffffffffffffffff82169050919050565b60006200065e8262000631565b9050919050565b620006708162000651565b81146200067c57600080fd5b50565b600081519050620006908162000665565b92915050565b60008060008060808587031215620006b357620006b2620004a8565b5b600085015167ffffffffffffffff811115620006d457620006d3620004ad565b5b620006e287828801620005fe565b945050602085015167ffffffffffffffff811115620007065762000705620004ad565b5b6200071487828801620005fe565b935050604062000727878288016200067f565b92505060606200073a878288016200067f565b91505092959194509250565b620007518162000651565b82525050565b60006020820190506200076e600083018462000746565b92915050565b600081519050919050565b7f4e487b7100000000000000000000000000000000000000000000000000000000600052602260045260246000fd5b60006002820490506001821680620007c757607f821691505b602082108103620007dd57620007dc6200077f565b5b50919050565b60008190508160005260206000209050919050565b60006020601f8301049050919050565b600082821b905092915050565b600060088302620008477fffffffffffffffffffffffffffffffffffffffffffffffffffffffffffffffff8262000808565b62000853868362000808565b95508019841693508086168417925050509392505050565b6000819050919050565b6000819050919050565b6000620008a06200089a62000894846200086b565b62000875565b6200086b565b9050919050565b6000819050919050565b620008bc836200087f565b620008d4620008cb82620008a7565b84845462000815565b825550505050565b600090565b620008eb620008dc565b620008f8818484620008b1565b505050565b5b81811015620009205762000914600082620008e1565b600181019050620008fe565b5050565b601f8211156200096f576200093981620007e3565b6200094484620007f8565b8101602085101562000954578190505b6200096c6200096385620007f8565b830182620008fd565b50505b505050565b600082821c905092915050565b6000620009946000198460080262000974565b1980831691505092915050565b6000620009af838362000981565b9150826002028217905092915050565b620009ca8262000774565b67ffffffffffffffff811115620009e657620009e5620004cd565b5b620009f28254620007ae565b620009ff82828562000924565b600060209050601f83116001811462000a37576000841562000a22578287015190505b62000a2e8582620009a1565b86555062000a9e565b601f19841662000a4786620007e3565b60005b8281101562000a715784890151825560018201915060208501945060208101905062000a4a565b8683101562000a91578489015162000a8d601f89168262000981565b8355505b6001600288020188555050505b505050505050565b7f5945532d00000000000000000000000000000000000000000000000000000000815250565b600081905092915050565b600062000ae48262000774565b62000af0818562000acc565b935062000b0281856020860162000587565b80840191505092915050565b600062000b1b8262000aa6565b60048201915062000b2d828462000ad7565b915081905092915050565b600082825260208201905092915050565b600062000b568262000774565b62000b62818562000b38565b935062000b7481856020860162000587565b62000b7f81620004bc565b840191505092915050565b7f5945530000000000000000000000000000000000000000000000000000000000600082015250565b600062000bc260038362000b38565b915062000bcf8262000b8a565b602082019050919050565b6000604082019050818103600083015262000bf6818462000b49565b9050818103602083015262000c0b8162000bb3565b905092915050565b7f4e4f2d0000000000000000000000000000000000000000000000000000000000815250565b600062000c468262000c13565b60038201915062000c58828462000ad7565b915081905092915050565b7f4e4f000000000000000000000000000000000000000000000000000000000000600082015250565b600062000c9b60028362000b38565b915062000ca88262000c63565b602082019050919050565b6000604082019050818103600083015262000ccf818462000b49565b9050818103602083015262000ce48162000c8c565b905092915050565b612a1a8062000cfc6000396000f3fe608060405234801561001057600080fd5b50600436106101425760003560e01c806369c1abb8116100b8578063b401faf11161007c578063b401faf114610331578063c390bd301461033b578063db006a7514610357578063f0d9bb2014610373578063f2fde38b14610391578063f6d3cf64146103ad57610142565b806369c1abb8146102af578063715018a6146102cd578063853fd421146102d75780638da5cb5b146102f5578063b2016bd41461031357610142565b80633fad9ae01161010a5780633fad9ae0146101ef57806346280a801461020d5780634d031c801461022957806351c6590a1461025957806362f791c014610275578063645932021461029157610142565b806303ee438c1461014757806304f3bcec1461016557806311a9f10a146101835780632ea30d1c146101a157806337f1e7f2146101bf575b600080fd5b61014f6103c9565b60405161015c9190611e25565b60405180910390f35b61016d610457565b60405161017a9190611e88565b60405180910390f35b61018b61047d565b6040516101989190611f02565b60405180910390f35b6101a96104a3565b6040516101b69190611f36565b60405180910390f35b6101d960048036038101906101d49190611f7b565b6104a9565b6040516101e69190611f36565b60405180910390f35b6101f7610536565b6040516102049190611e25565b60405180910390f35b61022760048036038101906102229190611fd4565b6105c4565b005b610243600480360381019061023e9190612027565b610839565b6040516102509190611f36565b60405180910390f35b610273600480360381019061026e9190612067565b610963565b005b61028f600480360381019061028a9190612027565b610c5b565b005b610299610dd3565b6040516102a691906120af565b60405180910390f35b6102b7610de6565b6040516102c49190611f36565b60405180910390f35b6102d5610dec565b005b6102df610e00565b6040516102ec91906120af565b60405180910390f35b6102fd610e13565b60405161030a9190611e88565b60405180910390f35b61031b610e3c565b60405161032891906120eb565b60405180910390f35b610339610e62565b005b61035560048036038101906103509190612132565b61119a565b005b610371600480360381019061036c9190612067565b6112e1565b005b61037b611555565b6040516103889190611f02565b60405180910390f35b6103ab60048036038101906103a6919061218b565b61157b565b005b6103c760048036038101906103c29190611fd4565b611601565b005b600380546103d6906121e7565b80601f0160208091040260200160405190810160405280929190818152602001828054610402906121e7565b801561044f5780601f106104245761010080835404028352916020019161044f565b820191906000526020600020905b81548152906001019060200180831161043257829003601f168201915b505050505081565b600460009054906101000a900473ffffffffffffffffffffffffffffffffffffffff1681565b600760009054906101000a900473ffffffffffffffffffffffffffffffffffffffff1681565b60095481565b60008060085414806104bd57506000600954145b156104cb5760329050610531565b60008060018111156104e0576104df612218565b5b8360018111156104f3576104f2612218565b5b1461050057600854610504565b6009545b90506009546008546105169190612276565b60648261052391906122aa565b61052d919061231b565b9150505b919050565b60028054610543906121e7565b80601f016020809104026020016040519081016040528092919081815260200182805461056f906121e7565b80156105bc5780601f10610591576101008083540402835291602001916105bc565b820191906000526020600020905b81548152906001019060200180831161059f57829003601f168201915b505050505081565b6105cc611bf3565b600760149054906101000a900460ff161561061c576040517f08c379a000000000000000000000000000000000000000000000000000000000815260040161061390612398565b60405180910390fd5b6000821161065f576040517f08c379a000000000000000000000000000000000000000000000000000000000815260040161065690612404565b60405180910390fd5b600080600181111561067457610673612218565b5b84600181111561068757610686612218565b5b1461069457600954610698565b6008545b905060008060018111156106af576106ae612218565b5b8560018111156106c2576106c1612218565b5b146106cf576008546106d3565b6009545b90506000849050600081846106e89190612276565b83836106f491906122aa565b6106fe919061231b565b90506000600181111561071457610713612218565b5b87600181111561072757610726612218565b5b0361082857816008600082825461073e9190612276565b9250508190555080600960008282546107579190612424565b92505081905550600660009054906101000a900473ffffffffffffffffffffffffffffffffffffffff1673ffffffffffffffffffffffffffffffffffffffff16639dc29fac33886040518363ffffffff1660e01b81526004016107bb929190612458565b600060405180830381600087803b1580156107d557600080fd5b505af11580156107e9573d6000803e3d6000fd5b505050506040517f08c379a000000000000000000000000000000000000000000000000000000000815260040161081f906124f3565b60405180910390fd5b50505050610834611c39565b505050565b600080600854148061084d57506000600954145b1561085b576000905061095d565b6000612710606461271061086f9190612424565b8461087a91906122aa565b610884919061231b565b9050600064e8d4a510008261089991906122aa565b905060008060018111156108b0576108af612218565b5b8660018111156108c3576108c2612218565b5b146108d0576009546108d4565b6008545b905060008060018111156108eb576108ea612218565b5b8760018111156108fe576108fd612218565b5b1461090b5760085461090f565b6009545b90506000839050600082905060008490506000838361092e9190612276565b828561093a91906122aa565b610944919061231b565b905080846109529190612276565b985050505050505050505b92915050565b61096b611bf3565b600760149054906101000a900460ff16156109bb576040517f08c379a00000000000000000000000000000000000000000000000000000000081526004016109b290612398565b60405180910390fd5b600560009054906101000a900473ffffffffffffffffffffffffffffffffffffffff1673ffffffffffffffffffffffffffffffffffffffff166323b872dd3330846040518463ffffffff1660e01b8152600401610a1a93929190612513565b6020604051808303816000875af1158015610a39573d6000803e3d6000fd5b505050506040513d601f19601f82011682018060405250810190610a5d919061255f565b610a9c576040517f08c379a0000000000000000000000000000000000000000000000000000000008152600401610a93906125d8565b60405180910390fd5b600064e8d4a5100082610aaf91906122aa565b9050600660009054906101000a900473ffffffffffffffffffffffffffffffffffffffff1673ffffffffffffffffffffffffffffffffffffffff166340c10f1930836040518363ffffffff1660e01b8152600401610b0e929190612458565b600060405180830381600087803b158015610b2857600080fd5b505af1158015610b3c573d6000803e3d6000fd5b50505050600760009054906101000a900473ffffffffffffffffffffffffffffffffffffffff1673ffffffffffffffffffffffffffffffffffffffff166340c10f1930836040518363ffffffff1660e01b8152600401610b9d929190612458565b600060405180830381600087803b158015610bb757600080fd5b505af1158015610bcb573d6000803e3d6000fd5b505050508060086000828254610be19190612276565b925050819055508060096000828254610bfa9190612276565b925050819055503373ffffffffffffffffffffffffffffffffffffffff167fc17cea59c2955cb181b03393209566960365771dbba9dc3d510180e7cb31208883604051610c479190611f36565b60405180910390a250610c58611c39565b50565b610c63611bf3565b600760149054906101000a900460ff1615610cb3576040517f08c379a0000000000000000000000000000000000000000000000000000000008152600401610caa90612398565b60405180910390fd5b6000600560009054906101000a900473ffffffffffffffffffffffffffffffffffffffff1673ffffffffffffffffffffffffffffffffffffffff1663dd62ed3e33306040518363ffffffff1660e01b8152600401610d129291906125f8565b602060405180830381865afa158015610d2f573d6000803e3d6000fd5b505050506040513d601f19601f82011682018060405250810190610d539190612636565b905060008111610d98576040517f08c379a0000000000000000000000000000000000000000000000000000000008152600401610d8f906126af565b60405180910390fd5b6040517f08c379a0000000000000000000000000000000000000000000000000000000008152600401610dca9061271b565b60405180910390fd5b600760159054906101000a900460ff1681565b60085481565b610df4611c42565b610dfe6000611cc9565b565b600760149054906101000a900460ff1681565b60008060009054906101000a900473ffffffffffffffffffffffffffffffffffffffff16905090565b600560009054906101000a900473ffffffffffffffffffffffffffffffffffffffff1681565b610e6a611bf3565b600760149054906101000a900460ff16610eb9576040517f08c379a0000000000000000000000000000000000000000000000000000000008152600401610eb090612787565b60405180910390fd5b6000600760159054906101000a900460ff16610ef757600760009054906101000a900473ffffffffffffffffffffffffffffffffffffffff16610f1b565b600660009054906101000a900473ffffffffffffffffffffffffffffffffffffffff165b905060008173ffffffffffffffffffffffffffffffffffffffff166370a08231336040518263ffffffff1660e01b8152600401610f589190611e88565b602060405180830381865afa158015610f75573d6000803e3d6000fd5b505050506040513d601f19601f82011682018060405250810190610f999190612636565b905060008111610fde576040517f08c379a0000000000000000000000000000000000000000000000000000000008152600401610fd5906127f3565b60405180910390fd5b8173ffffffffffffffffffffffffffffffffffffffff16639dc29fac33836040518363ffffffff1660e01b8152600401611019929190612458565b600060405180830381600087803b15801561103357600080fd5b505af1158015611047573d6000803e3d6000fd5b50505050600064e8d4a510008261105e919061231b565b9050600560009054906101000a900473ffffffffffffffffffffffffffffffffffffffff1673ffffffffffffffffffffffffffffffffffffffff1663a9059cbb33836040518363ffffffff1660e01b81526004016110bd929190612458565b6020604051808303816000875af11580156110dc573d6000803e3d6000fd5b505050506040513d601f19601f82011682018060405250810190611100919061255f565b61113f576040517f08c379a0000000000000000000000000000000000000000000000000000000008152600401611136906125d8565b60405180910390fd5b3373ffffffffffffffffffffffffffffffffffffffff167f222838db2794d11532d940e8dec38ae307ed0b63cd97c233322e221f998767a6836040516111859190611f36565b60405180910390a2505050611198611c39565b565b600460009054906101000a900473ffffffffffffffffffffffffffffffffffffffff1673ffffffffffffffffffffffffffffffffffffffff163373ffffffffffffffffffffffffffffffffffffffff161461122a576040517f08c379a00000000000000000000000000000000000000000000000000000000081526004016112219061285f565b60405180910390fd5b600760149054906101000a900460ff161561127a576040517f08c379a0000000000000000000000000000000000000000000000000000000008152600401611271906128cb565b60405180910390fd5b6001600760146101000a81548160ff02191690831515021790555080600760156101000a81548160ff0219169083151502179055508015157f2dbe45053af8a5be28b770b827ff6b4c3892598264889de43ab1d82708397d5160405160405180910390a250565b6112e9611bf3565b600660009054906101000a900473ffffffffffffffffffffffffffffffffffffffff1673ffffffffffffffffffffffffffffffffffffffff16639dc29fac33836040518363ffffffff1660e01b8152600401611346929190612458565b600060405180830381600087803b15801561136057600080fd5b505af1158015611374573d6000803e3d6000fd5b50505050600760009054906101000a900473ffffffffffffffffffffffffffffffffffffffff1673ffffffffffffffffffffffffffffffffffffffff16639dc29fac33836040518363ffffffff1660e01b81526004016113d5929190612458565b600060405180830381600087803b1580156113ef57600080fd5b505af1158015611403573d6000803e3d6000fd5b50505050600064e8d4a510008261141a919061231b565b9050600560009054906101000a900473ffffffffffffffffffffffffffffffffffffffff1673ffffffffffffffffffffffffffffffffffffffff1663a9059cbb33836040518363ffffffff1660e01b8152600401611479929190612458565b6020604051808303816000875af1158015611498573d6000803e3d6000fd5b505050506040513d601f19601f820116820180604052508101906114bc919061255f565b6114fb576040517f08c379a00000000000000000000000000000000000000000000000000000000081526004016114f2906125d8565b60405180910390fd5b3373ffffffffffffffffffffffffffffffffffffffff167f222838db2794d11532d940e8dec38ae307ed0b63cd97c233322e221f998767a6836040516115419190611f36565b60405180910390a250611552611c39565b50565b600660009054906101000a900473ffffffffffffffffffffffffffffffffffffffff1681565b611583611c42565b600073ffffffffffffffffffffffffffffffffffffffff168173ffffffffffffffffffffffffffffffffffffffff16036115f55760006040517f1e4fbdf70000000000000000000000000000000000000000000000000000000081526004016115ec9190611e88565b60405180910390fd5b6115fe81611cc9565b50565b611609611bf3565b600760149054906101000a900460ff1615611659576040517f08c379a000000000000000000000000000000000000000000000000000000000815260040161165090612398565b60405180910390fd5b6000821161169c576040517f08c379a000000000000000000000000000000000000000000000000000000000815260040161169390612404565b60405180910390fd5b600560009054906101000a900473ffffffffffffffffffffffffffffffffffffffff1673ffffffffffffffffffffffffffffffffffffffff166323b872dd3330856040518463ffffffff1660e01b81526004016116fb93929190612513565b6020604051808303816000875af115801561171a573d6000803e3d6000fd5b505050506040513d601f19601f8201168201806040525081019061173e919061255f565b61177d576040517f08c379a0000000000000000000000000000000000000000000000000000000008152600401611774906125d8565b60405180910390fd5b600061271060646127106117919190612424565b8461179c91906122aa565b6117a6919061231b565b9050600064e8d4a51000826117bb91906122aa565b905060008060018111156117d2576117d1612218565b5b8660018111156117e5576117e4612218565b5b146117f2576009546117f6565b6008545b9050600080600181111561180d5761180c612218565b5b8760018111156118205761181f612218565b5b1461182d57600854611831565b6009545b90506000839050600081836118469190612276565b848361185291906122aa565b61185c919061231b565b90506000818661186c9190612276565b9050878110156118b1576040517f08c379a00000000000000000000000000000000000000000000000000000000081526004016118a890612937565b60405180910390fd5b600060018111156118c5576118c4612218565b5b8a60018111156118d8576118d7612218565b5b03611a325782600960008282546118ef9190612276565b9250508190555081600860008282546119089190612424565b92505081905550600660009054906101000a900473ffffffffffffffffffffffffffffffffffffffff1673ffffffffffffffffffffffffffffffffffffffff166340c10f1933836040518363ffffffff1660e01b815260040161196c929190612458565b600060405180830381600087803b15801561198657600080fd5b505af115801561199a573d6000803e3d6000fd5b50505050600760009054906101000a900473ffffffffffffffffffffffffffffffffffffffff1673ffffffffffffffffffffffffffffffffffffffff166340c10f1930856040518363ffffffff1660e01b81526004016119fb929190612458565b600060405180830381600087803b158015611a1557600080fd5b505af1158015611a29573d6000803e3d6000fd5b50505050611b83565b8260086000828254611a449190612276565b925050819055508160096000828254611a5d9190612424565b92505081905550600760009054906101000a900473ffffffffffffffffffffffffffffffffffffffff1673ffffffffffffffffffffffffffffffffffffffff166340c10f1933836040518363ffffffff1660e01b8152600401611ac1929190612458565b600060405180830381600087803b158015611adb57600080fd5b505af1158015611aef573d6000803e3d6000fd5b50505050600660009054906101000a900473ffffffffffffffffffffffffffffffffffffffff1673ffffffffffffffffffffffffffffffffffffffff166340c10f1930856040518363ffffffff1660e01b8152600401611b50929190612458565b600060405180830381600087803b158015611b6a57600080fd5b505af1158015611b7e573d6000803e3d6000fd5b505050505b3373ffffffffffffffffffffffffffffffffffffffff167fae72ebddbd4b5f9bedcd85e50b45a772656767318721cdbb339fc9e8ab8cfba68b8b84611bc78f6104a9565b604051611bd7949392919061299f565b60405180910390a250505050505050611bee611c39565b505050565b600260015403611c2f576040517f3ee5aeb500000000000000000000000000000000000000000000000000000000815260040160405180910390fd5b6002600181905550565b60018081905550565b611c4a611d8d565b73ffffffffffffffffffffffffffffffffffffffff16611c68610e13565b73ffffffffffffffffffffffffffffffffffffffff1614611cc757611c8b611d8d565b6040517f118cdaa7000000000000000000000000000000000000000000000000000000008152600401611cbe9190611e88565b60405180910390fd5b565b60008060009054906101000a900473ffffffffffffffffffffffffffffffffffffffff169050816000806101000a81548173ffffffffffffffffffffffffffffffffffffffff021916908373ffffffffffffffffffffffffffffffffffffffff1602179055508173ffffffffffffffffffffffffffffffffffffffff168173ffffffffffffffffffffffffffffffffffffffff167f8be0079c531659141344cd1fd0a4f28419497f9722a3daafe3b4186f6b6457e060405160405180910390a35050565b600033905090565b600081519050919050565b600082825260208201905092915050565b60005b83811015611dcf578082015181840152602081019050611db4565b60008484015250505050565b6000601f19601f8301169050919050565b6000611df782611d95565b611e018185611da0565b9350611e11818560208601611db1565b611e1a81611ddb565b840191505092915050565b60006020820190508181036000830152611e3f8184611dec565b905092915050565b600073ffffffffffffffffffffffffffffffffffffffff82169050919050565b6000611e7282611e47565b9050919050565b611e8281611e67565b82525050565b6000602082019050611e9d6000830184611e79565b92915050565b6000819050919050565b6000611ec8611ec3611ebe84611e47565b611ea3565b611e47565b9050919050565b6000611eda82611ead565b9050919050565b6000611eec82611ecf565b9050919050565b611efc81611ee1565b82525050565b6000602082019050611f176000830184611ef3565b92915050565b6000819050919050565b611f3081611f1d565b82525050565b6000602082019050611f4b6000830184611f27565b92915050565b600080fd5b60028110611f6357600080fd5b50565b600081359050611f7581611f56565b92915050565b600060208284031215611f9157611f90611f51565b5b6000611f9f84828501611f66565b91505092915050565b611fb181611f1d565b8114611fbc57600080fd5b50565b600081359050611fce81611fa8565b92915050565b600080600060608486031215611fed57611fec611f51565b5b6000611ffb86828701611f66565b935050602061200c86828701611fbf565b925050604061201d86828701611fbf565b9150509250925092565b6000806040838503121561203e5761203d611f51565b5b600061204c85828601611f66565b925050602061205d85828601611fbf565b9150509250929050565b60006020828403121561207d5761207c611f51565b5b600061208b84828501611fbf565b91505092915050565b60008115159050919050565b6120a981612094565b82525050565b60006020820190506120c460008301846120a0565b92915050565b60006120d582611ecf565b9050919050565b6120e5816120ca565b82525050565b600060208201905061210060008301846120dc565b92915050565b61210f81612094565b811461211a57600080fd5b50565b60008135905061212c81612106565b92915050565b60006020828403121561214857612147611f51565b5b60006121568482850161211d565b91505092915050565b61216881611e67565b811461217357600080fd5b50565b6000813590506121858161215f565b92915050565b6000602082840312156121a1576121a0611f51565b5b60006121af84828501612176565b91505092915050565b7f4e487b7100000000000000000000000000000000000000000000000000000000600052602260045260246000fd5b600060028204905060018216806121ff57607f821691505b602082108103612212576122116121b8565b5b50919050565b7f4e487b7100000000000000000000000000000000000000000000000000000000600052602160045260246000fd5b7f4e487b7100000000000000000000000000000000000000000000000000000000600052601160045260246000fd5b600061228182611f1d565b915061228c83611f1d565b92508282019050808211156122a4576122a3612247565b5b92915050565b60006122b582611f1d565b91506122c083611f1d565b92508282026122ce81611f1d565b915082820484148315176122e5576122e4612247565b5b5092915050565b7f4e487b7100000000000000000000000000000000000000000000000000000000600052601260045260246000fd5b600061232682611f1d565b915061233183611f1d565b925082612341576123406122ec565b5b828204905092915050565b7f7265736f6c766564000000000000000000000000000000000000000000000000600082015250565b6000612382600883611da0565b915061238d8261234c565b602082019050919050565b600060208201905081810360008301526123b181612375565b9050919050565b7f616d6f756e742030000000000000000000000000000000000000000000000000600082015250565b60006123ee600883611da0565b91506123f9826123b8565b602082019050919050565b6000602082019050818103600083015261241d816123e1565b9050919050565b600061242f82611f1d565b915061243a83611f1d565b925082820390508181111561245257612451612247565b5b92915050565b600060408201905061246d6000830185611e79565b61247a6020830184611f27565b9392505050565b7f546f2073656c6c2c2062757920746865206f70706f73697465206f7574636f6d60008201527f65207468656e2072656465656d2e000000000000000000000000000000000000602082015250565b60006124dd602e83611da0565b91506124e882612481565b604082019050919050565b6000602082019050818103600083015261250c816124d0565b9050919050565b60006060820190506125286000830186611e79565b6125356020830185611e79565b6125426040830184611f27565b949350505050565b60008151905061255981612106565b92915050565b60006020828403121561257557612574611f51565b5b60006125838482850161254a565b91505092915050565b7f7472616e73666572206661696c65640000000000000000000000000000000000600082015250565b60006125c2600f83611da0565b91506125cd8261258c565b602082019050919050565b600060208201905081810360008301526125f1816125b5565b9050919050565b600060408201905061260d6000830185611e79565b61261a6020830184611e79565b9392505050565b60008151905061263081611fa8565b92915050565b60006020828403121561264c5761264b611f51565b5b600061265a84828501612621565b91505092915050565b7f616c6c6f77616e636520746f6f206c6f77000000000000000000000000000000600082015250565b6000612699601183611da0565b91506126a482612663565b602082019050919050565b600060208201905081810360008301526126c88161268c565b9050919050565b7f557365206275794578616374416d6f756e7420696e7374656164000000000000600082015250565b6000612705601a83611da0565b9150612710826126cf565b602082019050919050565b60006020820190508181036000830152612734816126f8565b9050919050565b7f6e6f74207265736f6c7665640000000000000000000000000000000000000000600082015250565b6000612771600c83611da0565b915061277c8261273b565b602082019050919050565b600060208201905081810360008301526127a081612764565b9050919050565b7f6e6f2077696e6e696e6773000000000000000000000000000000000000000000600082015250565b60006127dd600b83611da0565b91506127e8826127a7565b602082019050919050565b6000602082019050818103600083015261280c816127d0565b9050919050565b7f6f6e6c79207265736f6c76657200000000000000000000000000000000000000600082015250565b6000612849600d83611da0565b915061285482612813565b602082019050919050565b600060208201905081810360008301526128788161283c565b9050919050565b7f616c7265616479207265736f6c76656400000000000000000000000000000000600082015250565b60006128b5601083611da0565b91506128c08261287f565b602082019050919050565b600060208201905081810360008301526128e4816128a8565b9050919050565b7f736c697070616765000000000000000000000000000000000000000000000000600082015250565b6000612921600883611da0565b915061292c826128eb565b602082019050919050565b6000602082019050818103600083015261295081612914565b9050919050565b6002811061296857612967612218565b5b50565b600081905061297982612957565b919050565b60006129898261296b565b9050919050565b6129998161297e565b82525050565b60006080820190506129b46000830187612990565b6129c16020830186611f27565b6129ce6040830185611f27565b6129db6060830184611f27565b9594505050505056fea26469706673582212202de0ce1b20142df8bced548eecf9bfd4cff326c8f310792fe3ebee8f7dc9d85764736f6c6343000814003360806040523480156200001157600080fd5b50604051620019db380380620019db833981810160405281019062000037919062000348565b33828281600390816200004b919062000618565b5080600490816200005d919062000618565b505050600073ffffffffffffffffffffffffffffffffffffffff168173ffffffffffffffffffffffffffffffffffffffff1603620000d55760006040517f1e4fbdf7000000000000000000000000000000000000000000000000000000008152600401620000cc919062000744565b60405180910390fd5b620000e681620000ef60201b60201c565b50505062000761565b6000600560009054906101000a900473ffffffffffffffffffffffffffffffffffffffff16905081600560006101000a81548173ffffffffffffffffffffffffffffffffffffffff021916908373ffffffffffffffffffffffffffffffffffffffff1602179055508173ffffffffffffffffffffffffffffffffffffffff168173ffffffffffffffffffffffffffffffffffffffff167f8be0079c531659141344cd1fd0a4f28419497f9722a3daafe3b4186f6b6457e060405160405180910390a35050565b6000604051905090565b600080fd5b600080fd5b600080fd5b600080fd5b6000601f19601f8301169050919050565b7f4e487b7100000000000000000000000000000000000000000000000000000000600052604160045260246000fd5b6200021e82620001d3565b810181811067ffffffffffffffff8211171562000240576200023f620001e4565b5b80604052505050565b600062000255620001b5565b905062000263828262000213565b919050565b600067ffffffffffffffff821115620002865762000285620001e4565b5b6200029182620001d3565b9050602081019050919050565b60005b83811015620002be578082015181840152602081019050620002a1565b60008484015250505050565b6000620002e1620002db8462000268565b62000249565b9050828152602081018484840111156200030057620002ff620001ce565b5b6200030d8482856200029e565b509392505050565b600082601f8301126200032d576200032c620001c9565b5b81516200033f848260208601620002ca565b91505092915050565b60008060408385031215620003625762000361620001bf565b5b600083015167ffffffffffffffff811115620003835762000382620001c4565b5b620003918582860162000315565b925050602083015167ffffffffffffffff811115620003b557620003b4620001c4565b5b620003c38582860162000315565b9150509250929050565b600081519050919050565b7f4e487b7100000000000000000000000000000000000000000000000000000000600052602260045260246000fd5b600060028204905060018216806200042057607f821691505b602082108103620004365762000435620003d8565b5b50919050565b60008190508160005260206000209050919050565b60006020601f8301049050919050565b600082821b905092915050565b600060088302620004a07fffffffffffffffffffffffffffffffffffffffffffffffffffffffffffffffff8262000461565b620004ac868362000461565b95508019841693508086168417925050509392505050565b6000819050919050565b6000819050919050565b6000620004f9620004f3620004ed84620004c4565b620004ce565b620004c4565b9050919050565b6000819050919050565b6200051583620004d8565b6200052d620005248262000500565b8484546200046e565b825550505050565b600090565b6200054462000535565b620005518184846200050a565b505050565b5b8181101562000579576200056d6000826200053a565b60018101905062000557565b5050565b601f821115620005c85762000592816200043c565b6200059d8462000451565b81016020851015620005ad578190505b620005c5620005bc8562000451565b83018262000556565b50505b505050565b600082821c905092915050565b6000620005ed60001984600802620005cd565b1980831691505092915050565b6000620006088383620005da565b9150826002028217905092915050565b6200062382620003cd565b67ffffffffffffffff8111156200063f576200063e620001e4565b5b6200064b825462000407565b620006588282856200057d565b600060209050601f8311600181146200069057600084156200067b578287015190505b620006878582620005fa565b865550620006f7565b601f198416620006a0866200043c565b60005b82811015620006ca57848901518255600182019150602085019450602081019050620006a3565b86831015620006ea5784890151620006e6601f891682620005da565b8355505b6001600288020188555050505b505050505050565b600073ffffffffffffffffffffffffffffffffffffffff82169050919050565b60006200072c82620006ff565b9050919050565b6200073e816200071f565b82525050565b60006020820190506200075b600083018462000733565b92915050565b61126a80620007716000396000f3fe608060405234801561001057600080fd5b50600436106100ea5760003560e01c8063715018a61161008c5780639dc29fac116100665780639dc29fac1461023b578063a9059cbb14610257578063dd62ed3e14610287578063f2fde38b146102b7576100ea565b8063715018a6146101f55780638da5cb5b146101ff57806395d89b411461021d576100ea565b806323b872dd116100c857806323b872dd1461015b578063313ce5671461018b57806340c10f19146101a957806370a08231146101c5576100ea565b806306fdde03146100ef578063095ea7b31461010d57806318160ddd1461013d575b600080fd5b6100f76102d3565b6040516101049190610ebe565b60405180910390f35b61012760048036038101906101229190610f79565b610365565b6040516101349190610fd4565b60405180910390f35b610145610388565b6040516101529190610ffe565b60405180910390f35b61017560048036038101906101709190611019565b610392565b6040516101829190610fd4565b60405180910390f35b6101936103c1565b6040516101a09190611088565b60405180910390f35b6101c360048036038101906101be9190610f79565b6103ca565b005b6101df60048036038101906101da91906110a3565b6103e0565b6040516101ec9190610ffe565b60405180910390f35b6101fd610428565b005b61020761043c565b60405161021491906110df565b60405180910390f35b610225610466565b6040516102329190610ebe565b60405180910390f35b61025560048036038101906102509190610f79565b6104f8565b005b610271600480360381019061026c9190610f79565b61050e565b60405161027e9190610fd4565b60405180910390f35b6102a1600480360381019061029c91906110fa565b610531565b6040516102ae9190610ffe565b60405180910390f35b6102d160048036038101906102cc91906110a3565b6105b8565b005b6060600380546102e290611169565b80601f016020809104026020016040519081016040528092919081815260200182805461030e90611169565b801561035b5780601f106103305761010080835404028352916020019161035b565b820191906000526020600020905b81548152906001019060200180831161033e57829003601f168201915b5050505050905090565b60008061037061063e565b905061037d818585610646565b600191505092915050565b6000600254905090565b60008061039d61063e565b90506103aa858285610658565b6103b58585856106ed565b60019150509392505050565b60006012905090565b6103d26107e1565b6103dc8282610868565b5050565b60008060008373ffffffffffffffffffffffffffffffffffffffff1673ffffffffffffffffffffffffffffffffffffffff168152602001908152602001600020549050919050565b6104306107e1565b61043a60006108ea565b565b6000600560009054906101000a900473ffffffffffffffffffffffffffffffffffffffff16905090565b60606004805461047590611169565b80601f01602080910402602001604051908101604052809291908181526020018280546104a190611169565b80156104ee5780601f106104c3576101008083540402835291602001916104ee565b820191906000526020600020905b8154815290600101906020018083116104d157829003601f168201915b5050505050905090565b6105006107e1565b61050a82826109b0565b5050565b60008061051961063e565b90506105268185856106ed565b600191505092915050565b6000600160008473ffffffffffffffffffffffffffffffffffffffff1673ffffffffffffffffffffffffffffffffffffffff16815260200190815260200160002060008373ffffffffffffffffffffffffffffffffffffffff1673ffffffffffffffffffffffffffffffffffffffff16815260200190815260200160002054905092915050565b6105c06107e1565b600073ffffffffffffffffffffffffffffffffffffffff168173ffffffffffffffffffffffffffffffffffffffff16036106325760006040517f1e4fbdf700000000000000000000000000000000000000000000000000000000815260040161062991906110df565b60405180910390fd5b61063b816108ea565b50565b600033905090565b6106538383836001610a32565b505050565b60006106648484610531565b90507fffffffffffffffffffffffffffffffffffffffffffffffffffffffffffffffff8110156106e757818110156106d7578281836040517ffb8f41b20000000000000000000000000000000000000000000000000000000081526004016106ce9392919061119a565b60405180910390fd5b6106e684848484036000610a32565b5b50505050565b600073ffffffffffffffffffffffffffffffffffffffff168373ffffffffffffffffffffffffffffffffffffffff160361075f5760006040517f96c6fd1e00000000000000000000000000000000000000000000000000000000815260040161075691906110df565b60405180910390fd5b600073ffffffffffffffffffffffffffffffffffffffff168273ffffffffffffffffffffffffffffffffffffffff16036107d15760006040517fec442f050000000000000000000000000000000000000000000000000000000081526004016107c891906110df565b60405180910390fd5b6107dc838383610c09565b505050565b6107e961063e565b73ffffffffffffffffffffffffffffffffffffffff1661080761043c565b73ffffffffffffffffffffffffffffffffffffffff16146108665761082a61063e565b6040517f118cdaa700000000000000000000000000000000000000000000000000000000815260040161085d91906110df565b60405180910390fd5b565b600073ffffffffffffffffffffffffffffffffffffffff168273ffffffffffffffffffffffffffffffffffffffff16036108da5760006040517fec442f050000000000000000000000000000000000000000000000000000000081526004016108d191906110df565b60405180910390fd5b6108e660008383610c09565b5050565b6000600560009054906101000a900473ffffffffffffffffffffffffffffffffffffffff16905081600560006101000a81548173ffffffffffffffffffffffffffffffffffffffff021916908373ffffffffffffffffffffffffffffffffffffffff1602179055508173ffffffffffffffffffffffffffffffffffffffff168173ffffffffffffffffffffffffffffffffffffffff167f8be0079c531659141344cd1fd0a4f28419497f9722a3daafe3b4186f6b6457e060405160405180910390a35050565b600073ffffffffffffffffffffffffffffffffffffffff168273ffffffffffffffffffffffffffffffffffffffff1603610a225760006040517f96c6fd1e000000000000000000000000000000000000000000000000000000008152600401610a1991906110df565b60405180910390fd5b610a2e82600083610c09565b5050565b600073ffffffffffffffffffffffffffffffffffffffff168473ffffffffffffffffffffffffffffffffffffffff1603610aa45760006040517fe602df05000000000000000000000000000000000000000000000000000000008152600401610a9b91906110df565b60405180910390fd5b600073ffffffffffffffffffffffffffffffffffffffff168373ffffffffffffffffffffffffffffffffffffffff1603610b165760006040517f94280d62000000000000000000000000000000000000000000000000000000008152600401610b0d91906110df565b60405180910390fd5b81600160008673ffffffffffffffffffffffffffffffffffffffff1673ffffffffffffffffffffffffffffffffffffffff16815260200190815260200160002060008573ffffffffffffffffffffffffffffffffffffffff1673ffffffffffffffffffffffffffffffffffffffff168152602001908152602001600020819055508015610c03578273ffffffffffffffffffffffffffffffffffffffff168473ffffffffffffffffffffffffffffffffffffffff167f8c5be1e5ebec7d5bd14f71427d1e84f3dd0314c0f7b2291e5b200ac8c7c3b92584604051610bfa9190610ffe565b60405180910390a35b50505050565b600073ffffffffffffffffffffffffffffffffffffffff168373ffffffffffffffffffffffffffffffffffffffff1603610c5b578060026000828254610c4f9190611200565b92505081905550610d2e565b60008060008573ffffffffffffffffffffffffffffffffffffffff1673ffffffffffffffffffffffffffffffffffffffff16815260200190815260200160002054905081811015610ce7578381836040517fe450d38c000000000000000000000000000000000000000000000000000000008152600401610cde9392919061119a565b60405180910390fd5b8181036000808673ffffffffffffffffffffffffffffffffffffffff1673ffffffffffffffffffffffffffffffffffffffff16815260200190815260200160002081905550505b600073ffffffffffffffffffffffffffffffffffffffff168273ffffffffffffffffffffffffffffffffffffffff1603610d775780600260008282540392505081905550610dc4565b806000808473ffffffffffffffffffffffffffffffffffffffff1673ffffffffffffffffffffffffffffffffffffffff168152602001908152602001600020600082825401925050819055505b8173ffffffffffffffffffffffffffffffffffffffff168373ffffffffffffffffffffffffffffffffffffffff167fddf252ad1be2c89b69c2b068fc378daa952ba7f163c4a11628f55a4df523b3ef83604051610e219190610ffe565b60405180910390a3505050565b600081519050919050565b600082825260208201905092915050565b60005b83811015610e68578082015181840152602081019050610e4d565b60008484015250505050565b6000601f19601f8301169050919050565b6000610e9082610e2e565b610e9a8185610e39565b9350610eaa818560208601610e4a565b610eb381610e74565b840191505092915050565b60006020820190508181036000830152610ed88184610e85565b905092915050565b600080fd5b600073ffffffffffffffffffffffffffffffffffffffff82169050919050565b6000610f1082610ee5565b9050919050565b610f2081610f05565b8114610f2b57600080fd5b50565b600081359050610f3d81610f17565b92915050565b6000819050919050565b610f5681610f43565b8114610f6157600080fd5b50565b600081359050610f7381610f4d565b92915050565b60008060408385031215610f9057610f8f610ee0565b5b6000610f9e85828601610f2e565b9250506020610faf85828601610f64565b9150509250929050565b60008115159050919050565b610fce81610fb9565b82525050565b6000602082019050610fe96000830184610fc5565b92915050565b610ff881610f43565b82525050565b60006020820190506110136000830184610fef565b92915050565b60008060006060848603121561103257611031610ee0565b5b600061104086828701610f2e565b935050602061105186828701610f2e565b925050604061106286828701610f64565b9150509250925092565b600060ff82169050919050565b6110828161106c565b82525050565b600060208201905061109d6000830184611079565b92915050565b6000602082840312156110b9576110b8610ee0565b5b60006110c784828501610f2e565b91505092915050565b6110d981610f05565b82525050565b60006020820190506110f460008301846110d0565b92915050565b6000806040838503121561111157611110610ee0565b5b600061111f85828601610f2e565b925050602061113085828601610f2e565b9150509250929050565b7f4e487b7100000000000000000000000000000000000000000000000000000000600052602260045260246000fd5b6000600282049050600182168061118157607f821691505b6020821081036111945761119361113a565b5b50919050565b60006060820190506111af60008301866110d0565b6111bc6020830185610fef565b6111c96040830184610fef565b949350505050565b7f4e487b7100000000000000000000000000000000000000000000000000000000600052601160045260246000fd5b600061120b82610f43565b915061121683610f43565b925082820190508082111561122e5761122d6111d1565b5b9291505056fea264697066735822122095b0b069b5522cb2a30a9bff81b5c8bd405306e54a8dc4638d4d7557710c7e6264736f6c63430008140033a2646970667358221220ac6f7fe57ca2d221d1e3bdfe6d5ed11388c32561485cb1da754b2c6e9886dae664736f6c63430008140033",
  "linkReferences": {},
  "deployedLinkReferences": {}
}